{"abi":[{"type":"constructor","inputs":[],"stateMutability":"nonpayable"},{"type":"function","name":"increment","inputs":[],"outputs":[],"stateMutability":"nonpayable"},{"type":"function","name":"message","inputs":[],"outputs":[{"name":"","type":"string","internalType":"string"}],"stateMutability":"view"},{"type":"function","name":"setMessage","inputs":[{"name":"newMessage","type":"string","internalType":"string"}],"outputs":[],"stateMutability":"nonpayable"},{"type":"function","name":"update_counter","inputs":[],"outputs":[{"name":"","type":"uint256","internalType":"uint256"}],"stateMutability":"view"}],"bytecode":{"object":"0x608060405234801561000f575f5ffd5b505f6001819055506040518060400160405280600f81526020017f64656661756c74206d65737361676500000000000000000000000000000000008152505f908161005a919061029d565b5061036c565b5f81519050919050565b7f4e487b71000000000000000000000000000000000000000000000000000000005f52604160045260245ffd5b7f4e487b71000000000000000000000000000000000000000000000000000000005f52602260045260245ffd5b5f60028204905060018216806100db57607f821691505b6020821081036100ee576100ed610097565b5b50919050565b5f819050815f5260205f209050919050565b5f6020601f8301049050919050565b5f82821b905092915050565b5f600883026101507fffffffffffffffffffffffffffffffffffffffffffffffffffffffffffffffff82610115565b61015a8683610115565b95508019841693508086168417925050509392505050565b5f819050919050565b5f819050919050565b5f61019e61019961019484610172565b61017b565b610172565b9050919050565b5f819050919050565b6101b783610184565b6101cb6101c3826101a5565b848454610121565b825550505050565b5f5f905090565b6101e26101d3565b6101ed8184846101ae565b505050565b5b81811015610210576102055f826101da565b6001810190506101f3565b5050565b601f82111561025557610226816100f4565b61022f84610106565b8101602085101561023e578190505b61025261024a85610106565b8301826101f2565b50505b505050565b5f82821c905092915050565b5f6102755f198460080261025a565b1980831691505092915050565b5f61028d8383610266565b9150826002028217905092915050565b6102a682610060565b67ffffffffffffffff8111156102bf576102be61006a565b5b6102c982546100c4565b6102d4828285610214565b5f60209050601f831160018114610305575f84156102f3578287015190505b6102fd8582610282565b865550610364565b601f198416610313866100f4565b5f5b8281101561033a57848901518255600182019150602085019450602081019050610315565b868310156103575784890151610353601f891682610266565b8355505b6001600288020188555050505b505050505050565b610697806103795f395ff3fe608060405234801561000f575f5ffd5b506004361061004a575f3560e01c8063368b87721461004e578063619936291461006a578063d09de08a14610088578063e21f37ce14610092575b5f5ffd5b610068600480360381019061006391906101e0565b6100b0565b005b6100726100cd565b60405161007f9190610243565b60405180910390f35b6100906100d3565b005b61009a6100ec565b6040516100a791906102cc565b60405180910390f35b81815f91826100c0929190610520565b506100c96100d3565b5050565b60015481565b60015f8154809291906100e59061061a565b9190505550565b5f80546100f890610350565b80601f016020809104026020016040519081016040528092919081815260200182805461012490610350565b801561016f5780601f106101465761010080835404028352916020019161016f565b820191905f5260205f20905b81548152906001019060200180831161015257829003601f168201915b505050505081565b5f5ffd5b5f5ffd5b5f5ffd5b5f5ffd5b5f5ffd5b5f5f83601f8401126101a05761019f61017f565b5b8235905067ffffffffffffffff8111156101bd576101bc610183565b5b6020830191508360018202830111156101d9576101d8610187565b5b9250929050565b5f5f602083850312156101f6576101f5610177565b5b5f83013567ffffffffffffffff8111156102135761021261017b565b5b61021f8582860161018b565b92509250509250929050565b5f819050919050565b61023d8161022b565b82525050565b5f6020820190506102565f830184610234565b92915050565b5f81519050919050565b5f82825260208201905092915050565b8281835e5f83830152505050565b5f601f19601f8301169050919050565b5f61029e8261025c565b6102a88185610266565b93506102b8818560208601610276565b6102c181610284565b840191505092915050565b5f6020820190508181035f8301526102e48184610294565b905092915050565b5f82905092915050565b7f4e487b71000000000000000000000000000000000000000000000000000000005f52604160045260245ffd5b7f4e487b71000000000000000000000000000000000000000000000000000000005f52602260045260245ffd5b5f600282049050600182168061036757607f821691505b60208210810361037a57610379610323565b5b50919050565b5f819050815f5260205f209050919050565b5f6020601f8301049050919050565b5f82821b905092915050565b5f600883026103dc7fffffffffffffffffffffffffffffffffffffffffffffffffffffffffffffffff826103a1565b6103e686836103a1565b95508019841693508086168417925050509392505050565b5f819050919050565b5f61042161041c6104178461022b565b6103fe565b61022b565b9050919050565b5f819050919050565b61043a83610407565b61044e61044682610428565b8484546103ad565b825550505050565b5f5f905090565b610465610456565b610470818484610431565b505050565b5b81811015610493576104885f8261045d565b600181019050610476565b5050565b601f8211156104d8576104a981610380565b6104b284610392565b810160208510156104c1578190505b6104d56104cd85610392565b830182610475565b50505b505050565b5f82821c905092915050565b5f6104f85f19846008026104dd565b1980831691505092915050565b5f61051083836104e9565b9150826002028217905092915050565b61052a83836102ec565b67ffffffffffffffff811115610543576105426102f6565b5b61054d8254610350565b610558828285610497565b5f601f831160018114610585575f8415610573578287013590505b61057d8582610505565b8655506105e4565b601f19841661059386610380565b5f5b828110156105ba57848901358255600182019150602085019450602081019050610595565b868310156105d757848901356105d3601f8916826104e9565b8355505b6001600288020188555050505b50505050505050565b7f4e487b71000000000000000000000000000000000000000000000000000000005f52601160045260245ffd5b5f6106248261022b565b91507fffffffffffffffffffffffffffffffffffffffffffffffffffffffffffffffff8203610656576106556105ed565b5b60018201905091905056fea264697066735822122098a425242ca06223f4abc4444e947420898d16129d8f199f37cda2784fb100f064736f6c634300081c0033","linkReferences":{}},"methodIdentifiers":{"increment()":"d09de08a","message()":"e21f37ce","setMessage(string)":"368b8772","update_counter()":"61993629"},"id":0}